{
	"contracts/My_Contract.sol": {
		"Lottery": {
			"abi": [
				{
					"inputs": [],
					"stateMutability": "nonpayable",
					"type": "constructor"
				},
				{
					"inputs": [],
					"name": "getBalance",
					"outputs": [
						{
							"internalType": "uint256",
							"name": "",
							"type": "uint256"
						}
					],
					"stateMutability": "view",
					"type": "function"
				},
				{
					"inputs": [],
					"name": "manager",
					"outputs": [
						{
							"internalType": "address",
							"name": "",
							"type": "address"
						}
					],
					"stateMutability": "view",
					"type": "function"
				},
				{
					"inputs": [],
					"name": "pickWinner",
					"outputs": [],
					"stateMutability": "nonpayable",
					"type": "function"
				},
				{
					"inputs": [
						{
							"internalType": "uint256",
							"name": "",
							"type": "uint256"
						}
					],
					"name": "players",
					"outputs": [
						{
							"internalType": "address payable",
							"name": "",
							"type": "address"
						}
					],
					"stateMutability": "view",
					"type": "function"
				},
				{
					"stateMutability": "payable",
					"type": "receive"
				}
			],
			"devdoc": {
				"kind": "dev",
				"methods": {},
				"version": 1
			},
			"evm": {
				"assembly": "    /* \"contracts/My_Contract.sol\":73:1054  contract Lottery{... */\n  mstore(0x40, 0x80)\n    /* \"contracts/My_Contract.sol\":172:224  constructor(){... */\n  callvalue\n  dup1\n  iszero\n  tag_1\n  jumpi\n  0x00\n  dup1\n  revert\ntag_1:\n  pop\n    /* \"contracts/My_Contract.sol\":206:216  msg.sender */\n  caller\n    /* \"contracts/My_Contract.sol\":196:203  manager */\n  0x01\n  0x00\n    /* \"contracts/My_Contract.sol\":196:216  manager = msg.sender */\n  0x0100\n  exp\n  dup2\n  sload\n  dup2\n  0xffffffffffffffffffffffffffffffffffffffff\n  mul\n  not\n  and\n  swap1\n  dup4\n  0xffffffffffffffffffffffffffffffffffffffff\n  and\n  mul\n  or\n  swap1\n  sstore\n  pop\n    /* \"contracts/My_Contract.sol\":73:1054  contract Lottery{... */\n  dataSize(sub_0)\n  dup1\n  dataOffset(sub_0)\n  0x00\n  codecopy\n  0x00\n  return\nstop\n\nsub_0: assembly {\n        /* \"contracts/My_Contract.sol\":73:1054  contract Lottery{... */\n      mstore(0x40, 0x80)\n      jumpi(tag_1, lt(calldatasize, 0x04))\n      shr(0xe0, calldataload(0x00))\n      dup1\n      0x12065fe0\n      eq\n      tag_3\n      jumpi\n      dup1\n      0x481c6a75\n      eq\n      tag_4\n      jumpi\n      dup1\n      0x5d495aea\n      eq\n      tag_5\n      jumpi\n      dup1\n      0xf71d96cb\n      eq\n      tag_6\n      jumpi\n      jump(tag_2)\n    tag_1:\n      jumpi(tag_2, calldatasize)\n        /* \"contracts/My_Contract.sol\":291:300  0.1 ether */\n      0x016345785d8a0000\n        /* \"contracts/My_Contract.sol\":278:287  msg.value */\n      callvalue\n        /* \"contracts/My_Contract.sol\":278:300  msg.value == 0.1 ether */\n      eq\n        /* \"contracts/My_Contract.sol\":270:301  require(msg.value == 0.1 ether) */\n      tag_9\n      jumpi\n      0x00\n      dup1\n      revert\n    tag_9:\n        /* \"contracts/My_Contract.sol\":312:319  players */\n      0x00\n        /* \"contracts/My_Contract.sol\":333:343  msg.sender */\n      caller\n        /* \"contracts/My_Contract.sol\":312:345  players.push(payable(msg.sender)) */\n      swap1\n      dup1\n      0x01\n      dup2\n      sload\n      add\n      dup1\n      dup3\n      sstore\n      dup1\n      swap2\n      pop\n      pop\n      0x01\n      swap1\n      sub\n      swap1\n      0x00\n      mstore\n      keccak256(0x00, 0x20)\n      add\n      0x00\n      swap1\n      swap2\n      swap1\n      swap2\n      swap1\n      swap2\n      0x0100\n      exp\n      dup2\n      sload\n      dup2\n      0xffffffffffffffffffffffffffffffffffffffff\n      mul\n      not\n      and\n      swap1\n      dup4\n      0xffffffffffffffffffffffffffffffffffffffff\n      and\n      mul\n      or\n      swap1\n      sstore\n      stop\n        /* \"contracts/My_Contract.sol\":73:1054  contract Lottery{... */\n    tag_2:\n      0x00\n      dup1\n      revert\n        /* \"contracts/My_Contract.sol\":361:522  function getBalance() public view returns(uint){... */\n    tag_3:\n      callvalue\n      dup1\n      iszero\n      tag_11\n      jumpi\n      0x00\n      dup1\n      revert\n    tag_11:\n      pop\n      tag_12\n      tag_13\n      jump\t// in\n    tag_12:\n      mload(0x40)\n      tag_14\n      swap2\n      swap1\n      tag_15\n      jump\t// in\n    tag_14:\n      mload(0x40)\n      dup1\n      swap2\n      sub\n      swap1\n      return\n        /* \"contracts/My_Contract.sol\":137:159  address public manager */\n    tag_4:\n      callvalue\n      dup1\n      iszero\n      tag_16\n      jumpi\n      0x00\n      dup1\n      revert\n    tag_16:\n      pop\n      tag_17\n      tag_18\n      jump\t// in\n    tag_17:\n      mload(0x40)\n      tag_19\n      swap2\n      swap1\n      tag_20\n      jump\t// in\n    tag_19:\n      mload(0x40)\n      dup1\n      swap2\n      sub\n      swap1\n      return\n        /* \"contracts/My_Contract.sol\":694:1049  function pickWinner() public{... */\n    tag_5:\n      callvalue\n      dup1\n      iszero\n      tag_21\n      jumpi\n      0x00\n      dup1\n      revert\n    tag_21:\n      pop\n      tag_22\n      tag_23\n      jump\t// in\n    tag_22:\n      stop\n        /* \"contracts/My_Contract.sol\":98:130  address payable[] public players */\n    tag_6:\n      callvalue\n      dup1\n      iszero\n      tag_24\n      jumpi\n      0x00\n      dup1\n      revert\n    tag_24:\n      pop\n      tag_25\n      0x04\n      dup1\n      calldatasize\n      sub\n      dup2\n      add\n      swap1\n      tag_26\n      swap2\n      swap1\n      tag_27\n      jump\t// in\n    tag_26:\n      tag_28\n      jump\t// in\n    tag_25:\n      mload(0x40)\n      tag_29\n      swap2\n      swap1\n      tag_30\n      jump\t// in\n    tag_29:\n      mload(0x40)\n      dup1\n      swap2\n      sub\n      swap1\n      return\n        /* \"contracts/My_Contract.sol\":361:522  function getBalance() public view returns(uint){... */\n    tag_13:\n        /* \"contracts/My_Contract.sol\":403:407  uint */\n      0x00\n        /* \"contracts/My_Contract.sol\":441:448  manager */\n      0x01\n      0x00\n      swap1\n      sload\n      swap1\n      0x0100\n      exp\n      swap1\n      div\n      0xffffffffffffffffffffffffffffffffffffffff\n      and\n        /* \"contracts/My_Contract.sol\":427:448  msg.sender == manager */\n      0xffffffffffffffffffffffffffffffffffffffff\n      and\n        /* \"contracts/My_Contract.sol\":427:437  msg.sender */\n      caller\n        /* \"contracts/My_Contract.sol\":427:448  msg.sender == manager */\n      0xffffffffffffffffffffffffffffffffffffffff\n      and\n      eq\n        /* \"contracts/My_Contract.sol\":419:475  require(msg.sender == manager,\"You are not the manager\") */\n      tag_32\n      jumpi\n      mload(0x40)\n      0x08c379a000000000000000000000000000000000000000000000000000000000\n      dup2\n      mstore\n      0x04\n      add\n      tag_33\n      swap1\n      tag_34\n      jump\t// in\n    tag_33:\n      mload(0x40)\n      dup1\n      swap2\n      sub\n      swap1\n      revert\n    tag_32:\n        /* \"contracts/My_Contract.sol\":493:514  address(this).balance */\n      selfbalance\n        /* \"contracts/My_Contract.sol\":486:514  return address(this).balance */\n      swap1\n      pop\n        /* \"contracts/My_Contract.sol\":361:522  function getBalance() public view returns(uint){... */\n      swap1\n      jump\t// out\n        /* \"contracts/My_Contract.sol\":137:159  address public manager */\n    tag_18:\n      0x01\n      0x00\n      swap1\n      sload\n      swap1\n      0x0100\n      exp\n      swap1\n      div\n      0xffffffffffffffffffffffffffffffffffffffff\n      and\n      dup2\n      jump\t// out\n        /* \"contracts/My_Contract.sol\":694:1049  function pickWinner() public{... */\n    tag_23:\n        /* \"contracts/My_Contract.sol\":757:764  manager */\n      0x01\n      0x00\n      swap1\n      sload\n      swap1\n      0x0100\n      exp\n      swap1\n      div\n      0xffffffffffffffffffffffffffffffffffffffff\n      and\n        /* \"contracts/My_Contract.sol\":743:764  msg.sender == manager */\n      0xffffffffffffffffffffffffffffffffffffffff\n      and\n        /* \"contracts/My_Contract.sol\":743:753  msg.sender */\n      caller\n        /* \"contracts/My_Contract.sol\":743:764  msg.sender == manager */\n      0xffffffffffffffffffffffffffffffffffffffff\n      and\n      eq\n        /* \"contracts/My_Contract.sol\":735:765  require(msg.sender == manager) */\n      tag_36\n      jumpi\n      0x00\n      dup1\n      revert\n    tag_36:\n        /* \"contracts/My_Contract.sol\":803:804  3 */\n      0x03\n        /* \"contracts/My_Contract.sol\":785:792  players */\n      0x00\n        /* \"contracts/My_Contract.sol\":785:799  players.length */\n      dup1\n      sload\n      swap1\n      pop\n        /* \"contracts/My_Contract.sol\":785:804  players.length >= 3 */\n      lt\n      iszero\n        /* \"contracts/My_Contract.sol\":776:805  require (players.length >= 3) */\n      tag_37\n      jumpi\n      0x00\n      dup1\n      revert\n    tag_37:\n        /* \"contracts/My_Contract.sol\":818:824  uint r */\n      0x00\n        /* \"contracts/My_Contract.sol\":827:835  random() */\n      tag_38\n        /* \"contracts/My_Contract.sol\":827:833  random */\n      tag_39\n        /* \"contracts/My_Contract.sol\":827:835  random() */\n      jump\t// in\n    tag_38:\n        /* \"contracts/My_Contract.sol\":818:835  uint r = random() */\n      swap1\n      pop\n        /* \"contracts/My_Contract.sol\":846:868  address payable winner */\n      0x00\n        /* \"contracts/My_Contract.sol\":883:893  uint index */\n      dup1\n        /* \"contracts/My_Contract.sol\":900:907  players */\n      0x00\n        /* \"contracts/My_Contract.sol\":900:914  players.length */\n      dup1\n      sload\n      swap1\n      pop\n        /* \"contracts/My_Contract.sol\":896:897  r */\n      dup4\n        /* \"contracts/My_Contract.sol\":896:914  r % players.length */\n      tag_40\n      swap2\n      swap1\n      tag_41\n      jump\t// in\n    tag_40:\n        /* \"contracts/My_Contract.sol\":883:914  uint index = r % players.length */\n      swap1\n      pop\n        /* \"contracts/My_Contract.sol\":936:943  players */\n      0x00\n        /* \"contracts/My_Contract.sol\":944:949  index */\n      dup2\n        /* \"contracts/My_Contract.sol\":936:950  players[index] */\n      dup2\n      sload\n      dup2\n      lt\n      tag_42\n      jumpi\n      tag_43\n      tag_44\n      jump\t// in\n    tag_43:\n    tag_42:\n      swap1\n      0x00\n      mstore\n      keccak256(0x00, 0x20)\n      add\n      0x00\n      swap1\n      sload\n      swap1\n      0x0100\n      exp\n      swap1\n      div\n      0xffffffffffffffffffffffffffffffffffffffff\n      and\n        /* \"contracts/My_Contract.sol\":927:950  winner = players[index] */\n      swap2\n      pop\n        /* \"contracts/My_Contract.sol\":963:969  winner */\n      dup2\n        /* \"contracts/My_Contract.sol\":963:978  winner.transfer */\n      0xffffffffffffffffffffffffffffffffffffffff\n      and\n        /* \"contracts/My_Contract.sol\":963:992  winner.transfer(getBalance()) */\n      0x08fc\n        /* \"contracts/My_Contract.sol\":979:991  getBalance() */\n      tag_46\n        /* \"contracts/My_Contract.sol\":979:989  getBalance */\n      tag_13\n        /* \"contracts/My_Contract.sol\":979:991  getBalance() */\n      jump\t// in\n    tag_46:\n        /* \"contracts/My_Contract.sol\":963:992  winner.transfer(getBalance()) */\n      swap1\n      dup2\n      iszero\n      mul\n      swap1\n      mload(0x40)\n      0x00\n      mload(0x40)\n      dup1\n      dup4\n      sub\n      dup2\n      dup6\n      dup9\n      dup9\n      call\n      swap4\n      pop\n      pop\n      pop\n      pop\n      iszero\n      dup1\n      iszero\n      tag_48\n      jumpi\n      returndatasize\n      0x00\n      dup1\n      returndatacopy\n      revert(0x00, returndatasize)\n    tag_48:\n      pop\n        /* \"contracts/My_Contract.sol\":1039:1040  0 */\n      0x00\n        /* \"contracts/My_Contract.sol\":1017:1041  new address payable[](0) */\n      0xffffffffffffffff\n      dup2\n      gt\n      iszero\n      tag_49\n      jumpi\n      tag_50\n      tag_51\n      jump\t// in\n    tag_50:\n    tag_49:\n      mload(0x40)\n      swap1\n      dup1\n      dup3\n      mstore\n      dup1\n      0x20\n      mul\n      0x20\n      add\n      dup3\n      add\n      0x40\n      mstore\n      dup1\n      iszero\n      tag_52\n      jumpi\n      dup2\n      0x20\n      add\n      0x20\n      dup3\n      mul\n      dup1\n      calldatasize\n      dup4\n      calldatacopy\n      dup1\n      dup3\n      add\n      swap2\n      pop\n      pop\n      swap1\n      pop\n    tag_52:\n      pop\n        /* \"contracts/My_Contract.sol\":1007:1014  players */\n      0x00\n        /* \"contracts/My_Contract.sol\":1007:1041  players = new address payable[](0) */\n      swap1\n      dup1\n      mload\n      swap1\n      0x20\n      add\n      swap1\n      tag_53\n      swap3\n      swap2\n      swap1\n      tag_54\n      jump\t// in\n    tag_53:\n      pop\n        /* \"contracts/My_Contract.sol\":722:1049  {... */\n      pop\n      pop\n      pop\n        /* \"contracts/My_Contract.sol\":694:1049  function pickWinner() public{... */\n      jump\t// out\n        /* \"contracts/My_Contract.sol\":98:130  address payable[] public players */\n    tag_28:\n      0x00\n      dup2\n      dup2\n      sload\n      dup2\n      lt\n      tag_55\n      jumpi\n      0x00\n      dup1\n      revert\n    tag_55:\n      swap1\n      0x00\n      mstore\n      keccak256(0x00, 0x20)\n      add\n      0x00\n      swap2\n      pop\n      sload\n      swap1\n      0x0100\n      exp\n      swap1\n      div\n      0xffffffffffffffffffffffffffffffffffffffff\n      and\n      dup2\n      jump\t// out\n        /* \"contracts/My_Contract.sol\":530:684  function random() internal view returns(uint){... */\n    tag_39:\n        /* \"contracts/My_Contract.sol\":570:574  uint */\n      0x00\n        /* \"contracts/My_Contract.sol\":624:640  block.difficulty */\n      difficulty\n        /* \"contracts/My_Contract.sol\":642:657  block.timestamp */\n      timestamp\n        /* \"contracts/My_Contract.sol\":659:666  players */\n      0x00\n        /* \"contracts/My_Contract.sol\":659:673  players.length */\n      dup1\n      sload\n      swap1\n      pop\n        /* \"contracts/My_Contract.sol\":607:674  abi.encodePacked(block.difficulty, block.timestamp, players.length) */\n      add(0x20, mload(0x40))\n      tag_58\n      swap4\n      swap3\n      swap2\n      swap1\n      tag_59\n      jump\t// in\n    tag_58:\n      mload(0x40)\n      0x20\n      dup2\n      dup4\n      sub\n      sub\n      dup2\n      mstore\n      swap1\n      0x40\n      mstore\n        /* \"contracts/My_Contract.sol\":597:675  keccak256(abi.encodePacked(block.difficulty, block.timestamp, players.length)) */\n      dup1\n      mload\n      swap1\n      0x20\n      add\n      keccak256\n        /* \"contracts/My_Contract.sol\":592:676  uint(keccak256(abi.encodePacked(block.difficulty, block.timestamp, players.length))) */\n      0x00\n      shr\n        /* \"contracts/My_Contract.sol\":585:676  return uint(keccak256(abi.encodePacked(block.difficulty, block.timestamp, players.length))) */\n      swap1\n      pop\n        /* \"contracts/My_Contract.sol\":530:684  function random() internal view returns(uint){... */\n      swap1\n      jump\t// out\n    tag_54:\n      dup3\n      dup1\n      sload\n      dup3\n      dup3\n      sstore\n      swap1\n      0x00\n      mstore\n      keccak256(0x00, 0x20)\n      swap1\n      dup2\n      add\n      swap3\n      dup3\n      iszero\n      tag_60\n      jumpi\n      swap2\n      0x20\n      mul\n      dup3\n      add\n    tag_61:\n      dup3\n      dup2\n      gt\n      iszero\n      tag_62\n      jumpi\n      dup3\n      mload\n      dup3\n      exp(0x0100, 0x00)\n      dup2\n      sload\n      dup2\n      0xffffffffffffffffffffffffffffffffffffffff\n      mul\n      not\n      and\n      swap1\n      dup4\n      0xffffffffffffffffffffffffffffffffffffffff\n      and\n      mul\n      or\n      swap1\n      sstore\n      pop\n      swap2\n      0x20\n      add\n      swap2\n      swap1\n      0x01\n      add\n      swap1\n      jump(tag_61)\n    tag_62:\n    tag_60:\n      pop\n      swap1\n      pop\n      tag_63\n      swap2\n      swap1\n      tag_64\n      jump\t// in\n    tag_63:\n      pop\n      swap1\n      jump\t// out\n    tag_64:\n    tag_65:\n      dup1\n      dup3\n      gt\n      iszero\n      tag_66\n      jumpi\n      0x00\n      dup2\n      0x00\n      swap1\n      sstore\n      pop\n      0x01\n      add\n      jump(tag_65)\n    tag_66:\n      pop\n      swap1\n      jump\t// out\n        /* \"#utility.yul\":7:84   */\n    tag_67:\n        /* \"#utility.yul\":44:51   */\n      0x00\n        /* \"#utility.yul\":73:78   */\n      dup2\n        /* \"#utility.yul\":62:78   */\n      swap1\n      pop\n        /* \"#utility.yul\":7:84   */\n      swap2\n      swap1\n      pop\n      jump\t// out\n        /* \"#utility.yul\":90:208   */\n    tag_68:\n        /* \"#utility.yul\":177:201   */\n      tag_88\n        /* \"#utility.yul\":195:200   */\n      dup2\n        /* \"#utility.yul\":177:201   */\n      tag_67\n      jump\t// in\n    tag_88:\n        /* \"#utility.yul\":172:175   */\n      dup3\n        /* \"#utility.yul\":165:202   */\n      mstore\n        /* \"#utility.yul\":90:208   */\n      pop\n      pop\n      jump\t// out\n        /* \"#utility.yul\":214:436   */\n    tag_15:\n        /* \"#utility.yul\":307:311   */\n      0x00\n        /* \"#utility.yul\":345:347   */\n      0x20\n        /* \"#utility.yul\":334:343   */\n      dup3\n        /* \"#utility.yul\":330:348   */\n      add\n        /* \"#utility.yul\":322:348   */\n      swap1\n      pop\n        /* \"#utility.yul\":358:429   */\n      tag_90\n        /* \"#utility.yul\":426:427   */\n      0x00\n        /* \"#utility.yul\":415:424   */\n      dup4\n        /* \"#utility.yul\":411:428   */\n      add\n        /* \"#utility.yul\":402:408   */\n      dup5\n        /* \"#utility.yul\":358:429   */\n      tag_68\n      jump\t// in\n    tag_90:\n        /* \"#utility.yul\":214:436   */\n      swap3\n      swap2\n      pop\n      pop\n      jump\t// out\n        /* \"#utility.yul\":442:568   */\n    tag_69:\n        /* \"#utility.yul\":479:486   */\n      0x00\n        /* \"#utility.yul\":519:561   */\n      0xffffffffffffffffffffffffffffffffffffffff\n        /* \"#utility.yul\":512:517   */\n      dup3\n        /* \"#utility.yul\":508:562   */\n      and\n        /* \"#utility.yul\":497:562   */\n      swap1\n      pop\n        /* \"#utility.yul\":442:568   */\n      swap2\n      swap1\n      pop\n      jump\t// out\n        /* \"#utility.yul\":574:670   */\n    tag_70:\n        /* \"#utility.yul\":611:618   */\n      0x00\n        /* \"#utility.yul\":640:664   */\n      tag_93\n        /* \"#utility.yul\":658:663   */\n      dup3\n        /* \"#utility.yul\":640:664   */\n      tag_69\n      jump\t// in\n    tag_93:\n        /* \"#utility.yul\":629:664   */\n      swap1\n      pop\n        /* \"#utility.yul\":574:670   */\n      swap2\n      swap1\n      pop\n      jump\t// out\n        /* \"#utility.yul\":676:794   */\n    tag_71:\n        /* \"#utility.yul\":763:787   */\n      tag_95\n        /* \"#utility.yul\":781:786   */\n      dup2\n        /* \"#utility.yul\":763:787   */\n      tag_70\n      jump\t// in\n    tag_95:\n        /* \"#utility.yul\":758:761   */\n      dup3\n        /* \"#utility.yul\":751:788   */\n      mstore\n        /* \"#utility.yul\":676:794   */\n      pop\n      pop\n      jump\t// out\n        /* \"#utility.yul\":800:1022   */\n    tag_20:\n        /* \"#utility.yul\":893:897   */\n      0x00\n        /* \"#utility.yul\":931:933   */\n      0x20\n        /* \"#utility.yul\":920:929   */\n      dup3\n        /* \"#utility.yul\":916:934   */\n      add\n        /* \"#utility.yul\":908:934   */\n      swap1\n      pop\n        /* \"#utility.yul\":944:1015   */\n      tag_97\n        /* \"#utility.yul\":1012:1013   */\n      0x00\n        /* \"#utility.yul\":1001:1010   */\n      dup4\n        /* \"#utility.yul\":997:1014   */\n      add\n        /* \"#utility.yul\":988:994   */\n      dup5\n        /* \"#utility.yul\":944:1015   */\n      tag_71\n      jump\t// in\n    tag_97:\n        /* \"#utility.yul\":800:1022   */\n      swap3\n      swap2\n      pop\n      pop\n      jump\t// out\n        /* \"#utility.yul\":1109:1226   */\n    tag_73:\n        /* \"#utility.yul\":1218:1219   */\n      0x00\n        /* \"#utility.yul\":1215:1216   */\n      dup1\n        /* \"#utility.yul\":1208:1220   */\n      revert\n        /* \"#utility.yul\":1355:1477   */\n    tag_75:\n        /* \"#utility.yul\":1428:1452   */\n      tag_102\n        /* \"#utility.yul\":1446:1451   */\n      dup2\n        /* \"#utility.yul\":1428:1452   */\n      tag_67\n      jump\t// in\n    tag_102:\n        /* \"#utility.yul\":1421:1426   */\n      dup2\n        /* \"#utility.yul\":1418:1453   */\n      eq\n        /* \"#utility.yul\":1408:1471   */\n      tag_103\n      jumpi\n        /* \"#utility.yul\":1467:1468   */\n      0x00\n        /* \"#utility.yul\":1464:1465   */\n      dup1\n        /* \"#utility.yul\":1457:1469   */\n      revert\n        /* \"#utility.yul\":1408:1471   */\n    tag_103:\n        /* \"#utility.yul\":1355:1477   */\n      pop\n      jump\t// out\n        /* \"#utility.yul\":1483:1622   */\n    tag_76:\n        /* \"#utility.yul\":1529:1534   */\n      0x00\n        /* \"#utility.yul\":1567:1573   */\n      dup2\n        /* \"#utility.yul\":1554:1574   */\n      calldataload\n        /* \"#utility.yul\":1545:1574   */\n      swap1\n      pop\n        /* \"#utility.yul\":1583:1616   */\n      tag_105\n        /* \"#utility.yul\":1610:1615   */\n      dup2\n        /* \"#utility.yul\":1583:1616   */\n      tag_75\n      jump\t// in\n    tag_105:\n        /* \"#utility.yul\":1483:1622   */\n      swap3\n      swap2\n      pop\n      pop\n      jump\t// out\n        /* \"#utility.yul\":1628:1957   */\n    tag_27:\n        /* \"#utility.yul\":1687:1693   */\n      0x00\n        /* \"#utility.yul\":1736:1738   */\n      0x20\n        /* \"#utility.yul\":1724:1733   */\n      dup3\n        /* \"#utility.yul\":1715:1722   */\n      dup5\n        /* \"#utility.yul\":1711:1734   */\n      sub\n        /* \"#utility.yul\":1707:1739   */\n      slt\n        /* \"#utility.yul\":1704:1823   */\n      iszero\n      tag_107\n      jumpi\n        /* \"#utility.yul\":1742:1821   */\n      tag_108\n      tag_73\n      jump\t// in\n    tag_108:\n        /* \"#utility.yul\":1704:1823   */\n    tag_107:\n        /* \"#utility.yul\":1862:1863   */\n      0x00\n        /* \"#utility.yul\":1887:1940   */\n      tag_109\n        /* \"#utility.yul\":1932:1939   */\n      dup5\n        /* \"#utility.yul\":1923:1929   */\n      dup3\n        /* \"#utility.yul\":1912:1921   */\n      dup6\n        /* \"#utility.yul\":1908:1930   */\n      add\n        /* \"#utility.yul\":1887:1940   */\n      tag_76\n      jump\t// in\n    tag_109:\n        /* \"#utility.yul\":1877:1940   */\n      swap2\n      pop\n        /* \"#utility.yul\":1833:1950   */\n      pop\n        /* \"#utility.yul\":1628:1957   */\n      swap3\n      swap2\n      pop\n      pop\n      jump\t// out\n        /* \"#utility.yul\":1963:2067   */\n    tag_77:\n        /* \"#utility.yul\":2008:2015   */\n      0x00\n        /* \"#utility.yul\":2037:2061   */\n      tag_111\n        /* \"#utility.yul\":2055:2060   */\n      dup3\n        /* \"#utility.yul\":2037:2061   */\n      tag_69\n      jump\t// in\n    tag_111:\n        /* \"#utility.yul\":2026:2061   */\n      swap1\n      pop\n        /* \"#utility.yul\":1963:2067   */\n      swap2\n      swap1\n      pop\n      jump\t// out\n        /* \"#utility.yul\":2073:2215   */\n    tag_78:\n        /* \"#utility.yul\":2176:2208   */\n      tag_113\n        /* \"#utility.yul\":2202:2207   */\n      dup2\n        /* \"#utility.yul\":2176:2208   */\n      tag_77\n      jump\t// in\n    tag_113:\n        /* \"#utility.yul\":2171:2174   */\n      dup3\n        /* \"#utility.yul\":2164:2209   */\n      mstore\n        /* \"#utility.yul\":2073:2215   */\n      pop\n      pop\n      jump\t// out\n        /* \"#utility.yul\":2221:2475   */\n    tag_30:\n        /* \"#utility.yul\":2330:2334   */\n      0x00\n        /* \"#utility.yul\":2368:2370   */\n      0x20\n        /* \"#utility.yul\":2357:2366   */\n      dup3\n        /* \"#utility.yul\":2353:2371   */\n      add\n        /* \"#utility.yul\":2345:2371   */\n      swap1\n      pop\n        /* \"#utility.yul\":2381:2468   */\n      tag_115\n        /* \"#utility.yul\":2465:2466   */\n      0x00\n        /* \"#utility.yul\":2454:2463   */\n      dup4\n        /* \"#utility.yul\":2450:2467   */\n      add\n        /* \"#utility.yul\":2441:2447   */\n      dup5\n        /* \"#utility.yul\":2381:2468   */\n      tag_78\n      jump\t// in\n    tag_115:\n        /* \"#utility.yul\":2221:2475   */\n      swap3\n      swap2\n      pop\n      pop\n      jump\t// out\n        /* \"#utility.yul\":2481:2650   */\n    tag_79:\n        /* \"#utility.yul\":2565:2576   */\n      0x00\n        /* \"#utility.yul\":2599:2605   */\n      dup3\n        /* \"#utility.yul\":2594:2597   */\n      dup3\n        /* \"#utility.yul\":2587:2606   */\n      mstore\n        /* \"#utility.yul\":2639:2643   */\n      0x20\n        /* \"#utility.yul\":2634:2637   */\n      dup3\n        /* \"#utility.yul\":2630:2644   */\n      add\n        /* \"#utility.yul\":2615:2644   */\n      swap1\n      pop\n        /* \"#utility.yul\":2481:2650   */\n      swap3\n      swap2\n      pop\n      pop\n      jump\t// out\n        /* \"#utility.yul\":2656:2829   */\n    tag_80:\n        /* \"#utility.yul\":2796:2821   */\n      0x596f7520617265206e6f7420746865206d616e61676572000000000000000000\n        /* \"#utility.yul\":2792:2793   */\n      0x00\n        /* \"#utility.yul\":2784:2790   */\n      dup3\n        /* \"#utility.yul\":2780:2794   */\n      add\n        /* \"#utility.yul\":2773:2822   */\n      mstore\n        /* \"#utility.yul\":2656:2829   */\n      pop\n      jump\t// out\n        /* \"#utility.yul\":2835:3201   */\n    tag_81:\n        /* \"#utility.yul\":2977:2980   */\n      0x00\n        /* \"#utility.yul\":2998:3065   */\n      tag_119\n        /* \"#utility.yul\":3062:3064   */\n      0x17\n        /* \"#utility.yul\":3057:3060   */\n      dup4\n        /* \"#utility.yul\":2998:3065   */\n      tag_79\n      jump\t// in\n    tag_119:\n        /* \"#utility.yul\":2991:3065   */\n      swap2\n      pop\n        /* \"#utility.yul\":3074:3167   */\n      tag_120\n        /* \"#utility.yul\":3163:3166   */\n      dup3\n        /* \"#utility.yul\":3074:3167   */\n      tag_80\n      jump\t// in\n    tag_120:\n        /* \"#utility.yul\":3192:3194   */\n      0x20\n        /* \"#utility.yul\":3187:3190   */\n      dup3\n        /* \"#utility.yul\":3183:3195   */\n      add\n        /* \"#utility.yul\":3176:3195   */\n      swap1\n      pop\n        /* \"#utility.yul\":2835:3201   */\n      swap2\n      swap1\n      pop\n      jump\t// out\n        /* \"#utility.yul\":3207:3626   */\n    tag_34:\n        /* \"#utility.yul\":3373:3377   */\n      0x00\n        /* \"#utility.yul\":3411:3413   */\n      0x20\n        /* \"#utility.yul\":3400:3409   */\n      dup3\n        /* \"#utility.yul\":3396:3414   */\n      add\n        /* \"#utility.yul\":3388:3414   */\n      swap1\n      pop\n        /* \"#utility.yul\":3460:3469   */\n      dup2\n        /* \"#utility.yul\":3454:3458   */\n      dup2\n        /* \"#utility.yul\":3450:3470   */\n      sub\n        /* \"#utility.yul\":3446:3447   */\n      0x00\n        /* \"#utility.yul\":3435:3444   */\n      dup4\n        /* \"#utility.yul\":3431:3448   */\n      add\n        /* \"#utility.yul\":3424:3471   */\n      mstore\n        /* \"#utility.yul\":3488:3619   */\n      tag_122\n        /* \"#utility.yul\":3614:3618   */\n      dup2\n        /* \"#utility.yul\":3488:3619   */\n      tag_81\n      jump\t// in\n    tag_122:\n        /* \"#utility.yul\":3480:3619   */\n      swap1\n      pop\n        /* \"#utility.yul\":3207:3626   */\n      swap2\n      swap1\n      pop\n      jump\t// out\n        /* \"#utility.yul\":3632:3812   */\n    tag_82:\n        /* \"#utility.yul\":3680:3757   */\n      0x4e487b7100000000000000000000000000000000000000000000000000000000\n        /* \"#utility.yul\":3677:3678   */\n      0x00\n        /* \"#utility.yul\":3670:3758   */\n      mstore\n        /* \"#utility.yul\":3777:3781   */\n      0x12\n        /* \"#utility.yul\":3774:3775   */\n      0x04\n        /* \"#utility.yul\":3767:3782   */\n      mstore\n        /* \"#utility.yul\":3801:3805   */\n      0x24\n        /* \"#utility.yul\":3798:3799   */\n      0x00\n        /* \"#utility.yul\":3791:3806   */\n      revert\n        /* \"#utility.yul\":3818:3994   */\n    tag_41:\n        /* \"#utility.yul\":3850:3851   */\n      0x00\n        /* \"#utility.yul\":3867:3887   */\n      tag_125\n        /* \"#utility.yul\":3885:3886   */\n      dup3\n        /* \"#utility.yul\":3867:3887   */\n      tag_67\n      jump\t// in\n    tag_125:\n        /* \"#utility.yul\":3862:3887   */\n      swap2\n      pop\n        /* \"#utility.yul\":3901:3921   */\n      tag_126\n        /* \"#utility.yul\":3919:3920   */\n      dup4\n        /* \"#utility.yul\":3901:3921   */\n      tag_67\n      jump\t// in\n    tag_126:\n        /* \"#utility.yul\":3896:3921   */\n      swap3\n      pop\n        /* \"#utility.yul\":3940:3941   */\n      dup3\n        /* \"#utility.yul\":3930:3965   */\n      tag_127\n      jumpi\n        /* \"#utility.yul\":3945:3963   */\n      tag_128\n      tag_82\n      jump\t// in\n    tag_128:\n        /* \"#utility.yul\":3930:3965   */\n    tag_127:\n        /* \"#utility.yul\":3986:3987   */\n      dup3\n        /* \"#utility.yul\":3983:3984   */\n      dup3\n        /* \"#utility.yul\":3979:3988   */\n      mod\n        /* \"#utility.yul\":3974:3988   */\n      swap1\n      pop\n        /* \"#utility.yul\":3818:3994   */\n      swap3\n      swap2\n      pop\n      pop\n      jump\t// out\n        /* \"#utility.yul\":4000:4180   */\n    tag_44:\n        /* \"#utility.yul\":4048:4125   */\n      0x4e487b7100000000000000000000000000000000000000000000000000000000\n        /* \"#utility.yul\":4045:4046   */\n      0x00\n        /* \"#utility.yul\":4038:4126   */\n      mstore\n        /* \"#utility.yul\":4145:4149   */\n      0x32\n        /* \"#utility.yul\":4142:4143   */\n      0x04\n        /* \"#utility.yul\":4135:4150   */\n      mstore\n        /* \"#utility.yul\":4169:4173   */\n      0x24\n        /* \"#utility.yul\":4166:4167   */\n      0x00\n        /* \"#utility.yul\":4159:4174   */\n      revert\n        /* \"#utility.yul\":4186:4366   */\n    tag_51:\n        /* \"#utility.yul\":4234:4311   */\n      0x4e487b7100000000000000000000000000000000000000000000000000000000\n        /* \"#utility.yul\":4231:4232   */\n      0x00\n        /* \"#utility.yul\":4224:4312   */\n      mstore\n        /* \"#utility.yul\":4331:4335   */\n      0x41\n        /* \"#utility.yul\":4328:4329   */\n      0x04\n        /* \"#utility.yul\":4321:4336   */\n      mstore\n        /* \"#utility.yul\":4355:4359   */\n      0x24\n        /* \"#utility.yul\":4352:4353   */\n      0x00\n        /* \"#utility.yul\":4345:4360   */\n      revert\n        /* \"#utility.yul\":4372:4451   */\n    tag_83:\n        /* \"#utility.yul\":4411:4418   */\n      0x00\n        /* \"#utility.yul\":4440:4445   */\n      dup2\n        /* \"#utility.yul\":4429:4445   */\n      swap1\n      pop\n        /* \"#utility.yul\":4372:4451   */\n      swap2\n      swap1\n      pop\n      jump\t// out\n        /* \"#utility.yul\":4457:4614   */\n    tag_84:\n        /* \"#utility.yul\":4562:4607   */\n      tag_133\n        /* \"#utility.yul\":4582:4606   */\n      tag_134\n        /* \"#utility.yul\":4600:4605   */\n      dup3\n        /* \"#utility.yul\":4582:4606   */\n      tag_67\n      jump\t// in\n    tag_134:\n        /* \"#utility.yul\":4562:4607   */\n      tag_83\n      jump\t// in\n    tag_133:\n        /* \"#utility.yul\":4557:4560   */\n      dup3\n        /* \"#utility.yul\":4550:4608   */\n      mstore\n        /* \"#utility.yul\":4457:4614   */\n      pop\n      pop\n      jump\t// out\n        /* \"#utility.yul\":4620:5158   */\n    tag_59:\n        /* \"#utility.yul\":4788:4791   */\n      0x00\n        /* \"#utility.yul\":4803:4878   */\n      tag_136\n        /* \"#utility.yul\":4874:4877   */\n      dup3\n        /* \"#utility.yul\":4865:4871   */\n      dup7\n        /* \"#utility.yul\":4803:4878   */\n      tag_84\n      jump\t// in\n    tag_136:\n        /* \"#utility.yul\":4903:4905   */\n      0x20\n        /* \"#utility.yul\":4898:4901   */\n      dup3\n        /* \"#utility.yul\":4894:4906   */\n      add\n        /* \"#utility.yul\":4887:4906   */\n      swap2\n      pop\n        /* \"#utility.yul\":4916:4991   */\n      tag_137\n        /* \"#utility.yul\":4987:4990   */\n      dup3\n        /* \"#utility.yul\":4978:4984   */\n      dup6\n        /* \"#utility.yul\":4916:4991   */\n      tag_84\n      jump\t// in\n    tag_137:\n        /* \"#utility.yul\":5016:5018   */\n      0x20\n        /* \"#utility.yul\":5011:5014   */\n      dup3\n        /* \"#utility.yul\":5007:5019   */\n      add\n        /* \"#utility.yul\":5000:5019   */\n      swap2\n      pop\n        /* \"#utility.yul\":5029:5104   */\n      tag_138\n        /* \"#utility.yul\":5100:5103   */\n      dup3\n        /* \"#utility.yul\":5091:5097   */\n      dup5\n        /* \"#utility.yul\":5029:5104   */\n      tag_84\n      jump\t// in\n    tag_138:\n        /* \"#utility.yul\":5129:5131   */\n      0x20\n        /* \"#utility.yul\":5124:5127   */\n      dup3\n        /* \"#utility.yul\":5120:5132   */\n      add\n        /* \"#utility.yul\":5113:5132   */\n      swap2\n      pop\n        /* \"#utility.yul\":5149:5152   */\n      dup2\n        /* \"#utility.yul\":5142:5152   */\n      swap1\n      pop\n        /* \"#utility.yul\":4620:5158   */\n      swap5\n      swap4\n      pop\n      pop\n      pop\n      pop\n      jump\t// out\n\n    auxdata: 0xa2646970667358221220d3ea30fda20c7661a4a31906f7c1d922c72f5ce2daa0800cec09b834f11c6f2164736f6c63430008100033\n}\n",
				"bytecode": {
					"linkReferences": {},
					"object": "608060405234801561001057600080fd5b5033600160006101000a81548173ffffffffffffffffffffffffffffffffffffffff021916908373ffffffffffffffffffffffffffffffffffffffff1602179055506107c9806100616000396000f3fe6080604052600436106100435760003560e01c806312065fe0146100c5578063481c6a75146100f05780635d495aea1461011b578063f71d96cb14610132576100c0565b366100c05767016345785d8a0000341461005c57600080fd5b6000339080600181540180825580915050600190039060005260206000200160009091909190916101000a81548173ffffffffffffffffffffffffffffffffffffffff021916908373ffffffffffffffffffffffffffffffffffffffff1602179055005b600080fd5b3480156100d157600080fd5b506100da61016f565b6040516100e791906104e9565b60405180910390f35b3480156100fc57600080fd5b50610105610207565b6040516101129190610545565b60405180910390f35b34801561012757600080fd5b5061013061022d565b005b34801561013e57600080fd5b5061015960048036038101906101549190610591565b6103b0565b60405161016691906105df565b60405180910390f35b6000600160009054906101000a900473ffffffffffffffffffffffffffffffffffffffff1673ffffffffffffffffffffffffffffffffffffffff163373ffffffffffffffffffffffffffffffffffffffff1614610201576040517f08c379a00000000000000000000000000000000000000000000000000000000081526004016101f890610657565b60405180910390fd5b47905090565b600160009054906101000a900473ffffffffffffffffffffffffffffffffffffffff1681565b600160009054906101000a900473ffffffffffffffffffffffffffffffffffffffff1673ffffffffffffffffffffffffffffffffffffffff163373ffffffffffffffffffffffffffffffffffffffff161461028757600080fd5b6003600080549050101561029a57600080fd5b60006102a46103ef565b9050600080600080549050836102ba91906106a6565b9050600081815481106102d0576102cf6106d7565b5b9060005260206000200160009054906101000a900473ffffffffffffffffffffffffffffffffffffffff1691508173ffffffffffffffffffffffffffffffffffffffff166108fc61031f61016f565b9081150290604051600060405180830381858888f1935050505015801561034a573d6000803e3d6000fd5b50600067ffffffffffffffff81111561036657610365610706565b5b6040519080825280602002602001820160405280156103945781602001602082028036833780820191505090505b50600090805190602001906103aa929190610429565b50505050565b600081815481106103c057600080fd5b906000526020600020016000915054906101000a900473ffffffffffffffffffffffffffffffffffffffff1681565b6000444260008054905060405160200161040b93929190610756565b6040516020818303038152906040528051906020012060001c905090565b8280548282559060005260206000209081019282156104a2579160200282015b828111156104a15782518260006101000a81548173ffffffffffffffffffffffffffffffffffffffff021916908373ffffffffffffffffffffffffffffffffffffffff16021790555091602001919060010190610449565b5b5090506104af91906104b3565b5090565b5b808211156104cc5760008160009055506001016104b4565b5090565b6000819050919050565b6104e3816104d0565b82525050565b60006020820190506104fe60008301846104da565b92915050565b600073ffffffffffffffffffffffffffffffffffffffff82169050919050565b600061052f82610504565b9050919050565b61053f81610524565b82525050565b600060208201905061055a6000830184610536565b92915050565b600080fd5b61056e816104d0565b811461057957600080fd5b50565b60008135905061058b81610565565b92915050565b6000602082840312156105a7576105a6610560565b5b60006105b58482850161057c565b91505092915050565b60006105c982610504565b9050919050565b6105d9816105be565b82525050565b60006020820190506105f460008301846105d0565b92915050565b600082825260208201905092915050565b7f596f7520617265206e6f7420746865206d616e61676572000000000000000000600082015250565b60006106416017836105fa565b915061064c8261060b565b602082019050919050565b6000602082019050818103600083015261067081610634565b9050919050565b7f4e487b7100000000000000000000000000000000000000000000000000000000600052601260045260246000fd5b60006106b1826104d0565b91506106bc836104d0565b9250826106cc576106cb610677565b5b828206905092915050565b7f4e487b7100000000000000000000000000000000000000000000000000000000600052603260045260246000fd5b7f4e487b7100000000000000000000000000000000000000000000000000000000600052604160045260246000fd5b6000819050919050565b61075061074b826104d0565b610735565b82525050565b6000610762828661073f565b602082019150610772828561073f565b602082019150610782828461073f565b60208201915081905094935050505056fea2646970667358221220d3ea30fda20c7661a4a31906f7c1d922c72f5ce2daa0800cec09b834f11c6f2164736f6c63430008100033",
					"opcodes": "PUSH1 0x80 PUSH1 0x40 MSTORE CALLVALUE DUP1 ISZERO PUSH2 0x10 JUMPI PUSH1 0x0 DUP1 REVERT JUMPDEST POP CALLER PUSH1 0x1 PUSH1 0x0 PUSH2 0x100 EXP DUP2 SLOAD DUP2 PUSH20 0xFFFFFFFFFFFFFFFFFFFFFFFFFFFFFFFFFFFFFFFF MUL NOT AND SWAP1 DUP4 PUSH20 0xFFFFFFFFFFFFFFFFFFFFFFFFFFFFFFFFFFFFFFFF AND MUL OR SWAP1 SSTORE POP PUSH2 0x7C9 DUP1 PUSH2 0x61 PUSH1 0x0 CODECOPY PUSH1 0x0 RETURN INVALID PUSH1 0x80 PUSH1 0x40 MSTORE PUSH1 0x4 CALLDATASIZE LT PUSH2 0x43 JUMPI PUSH1 0x0 CALLDATALOAD PUSH1 0xE0 SHR DUP1 PUSH4 0x12065FE0 EQ PUSH2 0xC5 JUMPI DUP1 PUSH4 0x481C6A75 EQ PUSH2 0xF0 JUMPI DUP1 PUSH4 0x5D495AEA EQ PUSH2 0x11B JUMPI DUP1 PUSH4 0xF71D96CB EQ PUSH2 0x132 JUMPI PUSH2 0xC0 JUMP JUMPDEST CALLDATASIZE PUSH2 0xC0 JUMPI PUSH8 0x16345785D8A0000 CALLVALUE EQ PUSH2 0x5C JUMPI PUSH1 0x0 DUP1 REVERT JUMPDEST PUSH1 0x0 CALLER SWAP1 DUP1 PUSH1 0x1 DUP2 SLOAD ADD DUP1 DUP3 SSTORE DUP1 SWAP2 POP POP PUSH1 0x1 SWAP1 SUB SWAP1 PUSH1 0x0 MSTORE PUSH1 0x20 PUSH1 0x0 KECCAK256 ADD PUSH1 0x0 SWAP1 SWAP2 SWAP1 SWAP2 SWAP1 SWAP2 PUSH2 0x100 EXP DUP2 SLOAD DUP2 PUSH20 0xFFFFFFFFFFFFFFFFFFFFFFFFFFFFFFFFFFFFFFFF MUL NOT AND SWAP1 DUP4 PUSH20 0xFFFFFFFFFFFFFFFFFFFFFFFFFFFFFFFFFFFFFFFF AND MUL OR SWAP1 SSTORE STOP JUMPDEST PUSH1 0x0 DUP1 REVERT JUMPDEST CALLVALUE DUP1 ISZERO PUSH2 0xD1 JUMPI PUSH1 0x0 DUP1 REVERT JUMPDEST POP PUSH2 0xDA PUSH2 0x16F JUMP JUMPDEST PUSH1 0x40 MLOAD PUSH2 0xE7 SWAP2 SWAP1 PUSH2 0x4E9 JUMP JUMPDEST PUSH1 0x40 MLOAD DUP1 SWAP2 SUB SWAP1 RETURN JUMPDEST CALLVALUE DUP1 ISZERO PUSH2 0xFC JUMPI PUSH1 0x0 DUP1 REVERT JUMPDEST POP PUSH2 0x105 PUSH2 0x207 JUMP JUMPDEST PUSH1 0x40 MLOAD PUSH2 0x112 SWAP2 SWAP1 PUSH2 0x545 JUMP JUMPDEST PUSH1 0x40 MLOAD DUP1 SWAP2 SUB SWAP1 RETURN JUMPDEST CALLVALUE DUP1 ISZERO PUSH2 0x127 JUMPI PUSH1 0x0 DUP1 REVERT JUMPDEST POP PUSH2 0x130 PUSH2 0x22D JUMP JUMPDEST STOP JUMPDEST CALLVALUE DUP1 ISZERO PUSH2 0x13E JUMPI PUSH1 0x0 DUP1 REVERT JUMPDEST POP PUSH2 0x159 PUSH1 0x4 DUP1 CALLDATASIZE SUB DUP2 ADD SWAP1 PUSH2 0x154 SWAP2 SWAP1 PUSH2 0x591 JUMP JUMPDEST PUSH2 0x3B0 JUMP JUMPDEST PUSH1 0x40 MLOAD PUSH2 0x166 SWAP2 SWAP1 PUSH2 0x5DF JUMP JUMPDEST PUSH1 0x40 MLOAD DUP1 SWAP2 SUB SWAP1 RETURN JUMPDEST PUSH1 0x0 PUSH1 0x1 PUSH1 0x0 SWAP1 SLOAD SWAP1 PUSH2 0x100 EXP SWAP1 DIV PUSH20 0xFFFFFFFFFFFFFFFFFFFFFFFFFFFFFFFFFFFFFFFF AND PUSH20 0xFFFFFFFFFFFFFFFFFFFFFFFFFFFFFFFFFFFFFFFF AND CALLER PUSH20 0xFFFFFFFFFFFFFFFFFFFFFFFFFFFFFFFFFFFFFFFF AND EQ PUSH2 0x201 JUMPI PUSH1 0x40 MLOAD PUSH32 0x8C379A000000000000000000000000000000000000000000000000000000000 DUP2 MSTORE PUSH1 0x4 ADD PUSH2 0x1F8 SWAP1 PUSH2 0x657 JUMP JUMPDEST PUSH1 0x40 MLOAD DUP1 SWAP2 SUB SWAP1 REVERT JUMPDEST SELFBALANCE SWAP1 POP SWAP1 JUMP JUMPDEST PUSH1 0x1 PUSH1 0x0 SWAP1 SLOAD SWAP1 PUSH2 0x100 EXP SWAP1 DIV PUSH20 0xFFFFFFFFFFFFFFFFFFFFFFFFFFFFFFFFFFFFFFFF AND DUP2 JUMP JUMPDEST PUSH1 0x1 PUSH1 0x0 SWAP1 SLOAD SWAP1 PUSH2 0x100 EXP SWAP1 DIV PUSH20 0xFFFFFFFFFFFFFFFFFFFFFFFFFFFFFFFFFFFFFFFF AND PUSH20 0xFFFFFFFFFFFFFFFFFFFFFFFFFFFFFFFFFFFFFFFF AND CALLER PUSH20 0xFFFFFFFFFFFFFFFFFFFFFFFFFFFFFFFFFFFFFFFF AND EQ PUSH2 0x287 JUMPI PUSH1 0x0 DUP1 REVERT JUMPDEST PUSH1 0x3 PUSH1 0x0 DUP1 SLOAD SWAP1 POP LT ISZERO PUSH2 0x29A JUMPI PUSH1 0x0 DUP1 REVERT JUMPDEST PUSH1 0x0 PUSH2 0x2A4 PUSH2 0x3EF JUMP JUMPDEST SWAP1 POP PUSH1 0x0 DUP1 PUSH1 0x0 DUP1 SLOAD SWAP1 POP DUP4 PUSH2 0x2BA SWAP2 SWAP1 PUSH2 0x6A6 JUMP JUMPDEST SWAP1 POP PUSH1 0x0 DUP2 DUP2 SLOAD DUP2 LT PUSH2 0x2D0 JUMPI PUSH2 0x2CF PUSH2 0x6D7 JUMP JUMPDEST JUMPDEST SWAP1 PUSH1 0x0 MSTORE PUSH1 0x20 PUSH1 0x0 KECCAK256 ADD PUSH1 0x0 SWAP1 SLOAD SWAP1 PUSH2 0x100 EXP SWAP1 DIV PUSH20 0xFFFFFFFFFFFFFFFFFFFFFFFFFFFFFFFFFFFFFFFF AND SWAP2 POP DUP2 PUSH20 0xFFFFFFFFFFFFFFFFFFFFFFFFFFFFFFFFFFFFFFFF AND PUSH2 0x8FC PUSH2 0x31F PUSH2 0x16F JUMP JUMPDEST SWAP1 DUP2 ISZERO MUL SWAP1 PUSH1 0x40 MLOAD PUSH1 0x0 PUSH1 0x40 MLOAD DUP1 DUP4 SUB DUP2 DUP6 DUP9 DUP9 CALL SWAP4 POP POP POP POP ISZERO DUP1 ISZERO PUSH2 0x34A JUMPI RETURNDATASIZE PUSH1 0x0 DUP1 RETURNDATACOPY RETURNDATASIZE PUSH1 0x0 REVERT JUMPDEST POP PUSH1 0x0 PUSH8 0xFFFFFFFFFFFFFFFF DUP2 GT ISZERO PUSH2 0x366 JUMPI PUSH2 0x365 PUSH2 0x706 JUMP JUMPDEST JUMPDEST PUSH1 0x40 MLOAD SWAP1 DUP1 DUP3 MSTORE DUP1 PUSH1 0x20 MUL PUSH1 0x20 ADD DUP3 ADD PUSH1 0x40 MSTORE DUP1 ISZERO PUSH2 0x394 JUMPI DUP2 PUSH1 0x20 ADD PUSH1 0x20 DUP3 MUL DUP1 CALLDATASIZE DUP4 CALLDATACOPY DUP1 DUP3 ADD SWAP2 POP POP SWAP1 POP JUMPDEST POP PUSH1 0x0 SWAP1 DUP1 MLOAD SWAP1 PUSH1 0x20 ADD SWAP1 PUSH2 0x3AA SWAP3 SWAP2 SWAP1 PUSH2 0x429 JUMP JUMPDEST POP POP POP POP JUMP JUMPDEST PUSH1 0x0 DUP2 DUP2 SLOAD DUP2 LT PUSH2 0x3C0 JUMPI PUSH1 0x0 DUP1 REVERT JUMPDEST SWAP1 PUSH1 0x0 MSTORE PUSH1 0x20 PUSH1 0x0 KECCAK256 ADD PUSH1 0x0 SWAP2 POP SLOAD SWAP1 PUSH2 0x100 EXP SWAP1 DIV PUSH20 0xFFFFFFFFFFFFFFFFFFFFFFFFFFFFFFFFFFFFFFFF AND DUP2 JUMP JUMPDEST PUSH1 0x0 DIFFICULTY TIMESTAMP PUSH1 0x0 DUP1 SLOAD SWAP1 POP PUSH1 0x40 MLOAD PUSH1 0x20 ADD PUSH2 0x40B SWAP4 SWAP3 SWAP2 SWAP1 PUSH2 0x756 JUMP JUMPDEST PUSH1 0x40 MLOAD PUSH1 0x20 DUP2 DUP4 SUB SUB DUP2 MSTORE SWAP1 PUSH1 0x40 MSTORE DUP1 MLOAD SWAP1 PUSH1 0x20 ADD KECCAK256 PUSH1 0x0 SHR SWAP1 POP SWAP1 JUMP JUMPDEST DUP3 DUP1 SLOAD DUP3 DUP3 SSTORE SWAP1 PUSH1 0x0 MSTORE PUSH1 0x20 PUSH1 0x0 KECCAK256 SWAP1 DUP2 ADD SWAP3 DUP3 ISZERO PUSH2 0x4A2 JUMPI SWAP2 PUSH1 0x20 MUL DUP3 ADD JUMPDEST DUP3 DUP2 GT ISZERO PUSH2 0x4A1 JUMPI DUP3 MLOAD DUP3 PUSH1 0x0 PUSH2 0x100 EXP DUP2 SLOAD DUP2 PUSH20 0xFFFFFFFFFFFFFFFFFFFFFFFFFFFFFFFFFFFFFFFF MUL NOT AND SWAP1 DUP4 PUSH20 0xFFFFFFFFFFFFFFFFFFFFFFFFFFFFFFFFFFFFFFFF AND MUL OR SWAP1 SSTORE POP SWAP2 PUSH1 0x20 ADD SWAP2 SWAP1 PUSH1 0x1 ADD SWAP1 PUSH2 0x449 JUMP JUMPDEST JUMPDEST POP SWAP1 POP PUSH2 0x4AF SWAP2 SWAP1 PUSH2 0x4B3 JUMP JUMPDEST POP SWAP1 JUMP JUMPDEST JUMPDEST DUP1 DUP3 GT ISZERO PUSH2 0x4CC JUMPI PUSH1 0x0 DUP2 PUSH1 0x0 SWAP1 SSTORE POP PUSH1 0x1 ADD PUSH2 0x4B4 JUMP JUMPDEST POP SWAP1 JUMP JUMPDEST PUSH1 0x0 DUP2 SWAP1 POP SWAP2 SWAP1 POP JUMP JUMPDEST PUSH2 0x4E3 DUP2 PUSH2 0x4D0 JUMP JUMPDEST DUP3 MSTORE POP POP JUMP JUMPDEST PUSH1 0x0 PUSH1 0x20 DUP3 ADD SWAP1 POP PUSH2 0x4FE PUSH1 0x0 DUP4 ADD DUP5 PUSH2 0x4DA JUMP JUMPDEST SWAP3 SWAP2 POP POP JUMP JUMPDEST PUSH1 0x0 PUSH20 0xFFFFFFFFFFFFFFFFFFFFFFFFFFFFFFFFFFFFFFFF DUP3 AND SWAP1 POP SWAP2 SWAP1 POP JUMP JUMPDEST PUSH1 0x0 PUSH2 0x52F DUP3 PUSH2 0x504 JUMP JUMPDEST SWAP1 POP SWAP2 SWAP1 POP JUMP JUMPDEST PUSH2 0x53F DUP2 PUSH2 0x524 JUMP JUMPDEST DUP3 MSTORE POP POP JUMP JUMPDEST PUSH1 0x0 PUSH1 0x20 DUP3 ADD SWAP1 POP PUSH2 0x55A PUSH1 0x0 DUP4 ADD DUP5 PUSH2 0x536 JUMP JUMPDEST SWAP3 SWAP2 POP POP JUMP JUMPDEST PUSH1 0x0 DUP1 REVERT JUMPDEST PUSH2 0x56E DUP2 PUSH2 0x4D0 JUMP JUMPDEST DUP2 EQ PUSH2 0x579 JUMPI PUSH1 0x0 DUP1 REVERT JUMPDEST POP JUMP JUMPDEST PUSH1 0x0 DUP2 CALLDATALOAD SWAP1 POP PUSH2 0x58B DUP2 PUSH2 0x565 JUMP JUMPDEST SWAP3 SWAP2 POP POP JUMP JUMPDEST PUSH1 0x0 PUSH1 0x20 DUP3 DUP5 SUB SLT ISZERO PUSH2 0x5A7 JUMPI PUSH2 0x5A6 PUSH2 0x560 JUMP JUMPDEST JUMPDEST PUSH1 0x0 PUSH2 0x5B5 DUP5 DUP3 DUP6 ADD PUSH2 0x57C JUMP JUMPDEST SWAP2 POP POP SWAP3 SWAP2 POP POP JUMP JUMPDEST PUSH1 0x0 PUSH2 0x5C9 DUP3 PUSH2 0x504 JUMP JUMPDEST SWAP1 POP SWAP2 SWAP1 POP JUMP JUMPDEST PUSH2 0x5D9 DUP2 PUSH2 0x5BE JUMP JUMPDEST DUP3 MSTORE POP POP JUMP JUMPDEST PUSH1 0x0 PUSH1 0x20 DUP3 ADD SWAP1 POP PUSH2 0x5F4 PUSH1 0x0 DUP4 ADD DUP5 PUSH2 0x5D0 JUMP JUMPDEST SWAP3 SWAP2 POP POP JUMP JUMPDEST PUSH1 0x0 DUP3 DUP3 MSTORE PUSH1 0x20 DUP3 ADD SWAP1 POP SWAP3 SWAP2 POP POP JUMP JUMPDEST PUSH32 0x596F7520617265206E6F7420746865206D616E61676572000000000000000000 PUSH1 0x0 DUP3 ADD MSTORE POP JUMP JUMPDEST PUSH1 0x0 PUSH2 0x641 PUSH1 0x17 DUP4 PUSH2 0x5FA JUMP JUMPDEST SWAP2 POP PUSH2 0x64C DUP3 PUSH2 0x60B JUMP JUMPDEST PUSH1 0x20 DUP3 ADD SWAP1 POP SWAP2 SWAP1 POP JUMP JUMPDEST PUSH1 0x0 PUSH1 0x20 DUP3 ADD SWAP1 POP DUP2 DUP2 SUB PUSH1 0x0 DUP4 ADD MSTORE PUSH2 0x670 DUP2 PUSH2 0x634 JUMP JUMPDEST SWAP1 POP SWAP2 SWAP1 POP JUMP JUMPDEST PUSH32 0x4E487B7100000000000000000000000000000000000000000000000000000000 PUSH1 0x0 MSTORE PUSH1 0x12 PUSH1 0x4 MSTORE PUSH1 0x24 PUSH1 0x0 REVERT JUMPDEST PUSH1 0x0 PUSH2 0x6B1 DUP3 PUSH2 0x4D0 JUMP JUMPDEST SWAP2 POP PUSH2 0x6BC DUP4 PUSH2 0x4D0 JUMP JUMPDEST SWAP3 POP DUP3 PUSH2 0x6CC JUMPI PUSH2 0x6CB PUSH2 0x677 JUMP JUMPDEST JUMPDEST DUP3 DUP3 MOD SWAP1 POP SWAP3 SWAP2 POP POP JUMP JUMPDEST PUSH32 0x4E487B7100000000000000000000000000000000000000000000000000000000 PUSH1 0x0 MSTORE PUSH1 0x32 PUSH1 0x4 MSTORE PUSH1 0x24 PUSH1 0x0 REVERT JUMPDEST PUSH32 0x4E487B7100000000000000000000000000000000000000000000000000000000 PUSH1 0x0 MSTORE PUSH1 0x41 PUSH1 0x4 MSTORE PUSH1 0x24 PUSH1 0x0 REVERT JUMPDEST PUSH1 0x0 DUP2 SWAP1 POP SWAP2 SWAP1 POP JUMP JUMPDEST PUSH2 0x750 PUSH2 0x74B DUP3 PUSH2 0x4D0 JUMP JUMPDEST PUSH2 0x735 JUMP JUMPDEST DUP3 MSTORE POP POP JUMP JUMPDEST PUSH1 0x0 PUSH2 0x762 DUP3 DUP7 PUSH2 0x73F JUMP JUMPDEST PUSH1 0x20 DUP3 ADD SWAP2 POP PUSH2 0x772 DUP3 DUP6 PUSH2 0x73F JUMP JUMPDEST PUSH1 0x20 DUP3 ADD SWAP2 POP PUSH2 0x782 DUP3 DUP5 PUSH2 0x73F JUMP JUMPDEST PUSH1 0x20 DUP3 ADD SWAP2 POP DUP2 SWAP1 POP SWAP5 SWAP4 POP POP POP POP JUMP INVALID LOG2 PUSH5 0x6970667358 0x22 SLT KECCAK256 0xD3 0xEA ADDRESS REVERT LOG2 0xC PUSH23 0x61A4A31906F7C1D922C72F5CE2DAA0800CEC09B834F11C PUSH16 0x2164736F6C6343000810003300000000 "
				},
				"gasEstimates": {
					"creation": {
						"codeDepositCost": "398600",
						"executionCost": "24702",
						"totalCost": "423302"
					},
					"external": {
						"getBalance()": "2584",
						"manager()": "2514",
						"pickWinner()": "infinite",
						"players(uint256)": "5000"
					},
					"internal": {
						"random()": "infinite"
					}
				},
				"methodIdentifiers": {
					"getBalance()": "12065fe0",
					"manager()": "481c6a75",
					"pickWinner()": "5d495aea",
					"players(uint256)": "f71d96cb"
				}
			},
			"storageLayout": {
				"storage": [
					{
						"astId": 4,
						"contract": "contracts/My_Contract.sol:Lottery",
						"label": "players",
						"offset": 0,
						"slot": "0",
						"type": "t_array(t_address_payable)dyn_storage"
					},
					{
						"astId": 6,
						"contract": "contracts/My_Contract.sol:Lottery",
						"label": "manager",
						"offset": 0,
						"slot": "1",
						"type": "t_address"
					}
				],
				"types": {
					"t_address": {
						"encoding": "inplace",
						"label": "address",
						"numberOfBytes": "20"
					},
					"t_address_payable": {
						"encoding": "inplace",
						"label": "address payable",
						"numberOfBytes": "20"
					},
					"t_array(t_address_payable)dyn_storage": {
						"base": "t_address_payable",
						"encoding": "dynamic_array",
						"label": "address payable[]",
						"numberOfBytes": "32"
					}
				}
			},
			"userdoc": {
				"kind": "user",
				"methods": {},
				"version": 1
			}
		}
	}
}